{
  "_format": "hh-sol-artifact-1",
  "contractName": "DegenToken",
  "sourceName": "contracts/DegenToken.sol",
  "abi": [
    {
      "inputs": [],
      "stateMutability": "nonpayable",
      "type": "constructor"
    },
    {
      "anonymous": false,
      "inputs": [
        {
          "indexed": true,
          "internalType": "address",
          "name": "owner",
          "type": "address"
        },
        {
          "indexed": true,
          "internalType": "address",
          "name": "spender",
          "type": "address"
        },
        {
          "indexed": false,
          "internalType": "uint256",
          "name": "value",
          "type": "uint256"
        }
      ],
      "name": "Approval",
      "type": "event"
    },
    {
      "anonymous": false,
      "inputs": [
        {
          "indexed": true,
          "internalType": "address",
          "name": "previousOwner",
          "type": "address"
        },
        {
          "indexed": true,
          "internalType": "address",
          "name": "newOwner",
          "type": "address"
        }
      ],
      "name": "OwnershipTransferred",
      "type": "event"
    },
    {
      "anonymous": false,
      "inputs": [
        {
          "indexed": true,
          "internalType": "address",
          "name": "from",
          "type": "address"
        },
        {
          "indexed": true,
          "internalType": "address",
          "name": "to",
          "type": "address"
        },
        {
          "indexed": false,
          "internalType": "uint256",
          "name": "value",
          "type": "uint256"
        }
      ],
      "name": "Transfer",
      "type": "event"
    },
    {
      "inputs": [
        {
          "internalType": "address",
          "name": "owner",
          "type": "address"
        },
        {
          "internalType": "address",
          "name": "spender",
          "type": "address"
        }
      ],
      "name": "allowance",
      "outputs": [
        {
          "internalType": "uint256",
          "name": "",
          "type": "uint256"
        }
      ],
      "stateMutability": "view",
      "type": "function"
    },
    {
      "inputs": [
        {
          "internalType": "address",
          "name": "spender",
          "type": "address"
        },
        {
          "internalType": "uint256",
          "name": "amount",
          "type": "uint256"
        }
      ],
      "name": "approve",
      "outputs": [
        {
          "internalType": "bool",
          "name": "",
          "type": "bool"
        }
      ],
      "stateMutability": "nonpayable",
      "type": "function"
    },
    {
      "inputs": [
        {
          "internalType": "address",
          "name": "account",
          "type": "address"
        }
      ],
      "name": "balanceOf",
      "outputs": [
        {
          "internalType": "uint256",
          "name": "",
          "type": "uint256"
        }
      ],
      "stateMutability": "view",
      "type": "function"
    },
    {
      "inputs": [
        {
          "internalType": "uint256",
          "name": "amount",
          "type": "uint256"
        }
      ],
      "name": "burn",
      "outputs": [],
      "stateMutability": "nonpayable",
      "type": "function"
    },
    {
      "inputs": [
        {
          "internalType": "address",
          "name": "account",
          "type": "address"
        },
        {
          "internalType": "uint256",
          "name": "amount",
          "type": "uint256"
        }
      ],
      "name": "burnFrom",
      "outputs": [],
      "stateMutability": "nonpayable",
      "type": "function"
    },
    {
      "inputs": [],
      "name": "cost",
      "outputs": [
        {
          "internalType": "int256",
          "name": "",
          "type": "int256"
        }
      ],
      "stateMutability": "view",
      "type": "function"
    },
    {
      "inputs": [],
      "name": "decimals",
      "outputs": [
        {
          "internalType": "uint8",
          "name": "",
          "type": "uint8"
        }
      ],
      "stateMutability": "view",
      "type": "function"
    },
    {
      "inputs": [
        {
          "internalType": "address",
          "name": "spender",
          "type": "address"
        },
        {
          "internalType": "uint256",
          "name": "subtractedValue",
          "type": "uint256"
        }
      ],
      "name": "decreaseAllowance",
      "outputs": [
        {
          "internalType": "bool",
          "name": "",
          "type": "bool"
        }
      ],
      "stateMutability": "nonpayable",
      "type": "function"
    },
    {
      "inputs": [
        {
          "internalType": "address",
          "name": "spender",
          "type": "address"
        },
        {
          "internalType": "uint256",
          "name": "addedValue",
          "type": "uint256"
        }
      ],
      "name": "increaseAllowance",
      "outputs": [
        {
          "internalType": "bool",
          "name": "",
          "type": "bool"
        }
      ],
      "stateMutability": "nonpayable",
      "type": "function"
    },
    {
      "inputs": [
        {
          "internalType": "address",
          "name": "to",
          "type": "address"
        },
        {
          "internalType": "uint256",
          "name": "amount",
          "type": "uint256"
        }
      ],
      "name": "mint",
      "outputs": [],
      "stateMutability": "nonpayable",
      "type": "function"
    },
    {
      "inputs": [],
      "name": "name",
      "outputs": [
        {
          "internalType": "string",
          "name": "",
          "type": "string"
        }
      ],
      "stateMutability": "view",
      "type": "function"
    },
    {
      "inputs": [],
      "name": "owner",
      "outputs": [
        {
          "internalType": "address",
          "name": "",
          "type": "address"
        }
      ],
      "stateMutability": "view",
      "type": "function"
    },
    {
      "inputs": [
        {
          "internalType": "uint256",
          "name": "item_serial",
          "type": "uint256"
        }
      ],
      "name": "redeem",
      "outputs": [],
      "stateMutability": "payable",
      "type": "function"
    },
    {
      "inputs": [],
      "name": "redeem_shop",
      "outputs": [
        {
          "internalType": "string",
          "name": "",
          "type": "string"
        }
      ],
      "stateMutability": "view",
      "type": "function"
    },
    {
      "inputs": [],
      "name": "renounceOwnership",
      "outputs": [],
      "stateMutability": "nonpayable",
      "type": "function"
    },
    {
      "inputs": [],
      "name": "symbol",
      "outputs": [
        {
          "internalType": "string",
          "name": "",
          "type": "string"
        }
      ],
      "stateMutability": "view",
      "type": "function"
    },
    {
      "inputs": [],
      "name": "totalSupply",
      "outputs": [
        {
          "internalType": "uint256",
          "name": "",
          "type": "uint256"
        }
      ],
      "stateMutability": "view",
      "type": "function"
    },
    {
      "inputs": [
        {
          "internalType": "address",
          "name": "to",
          "type": "address"
        },
        {
          "internalType": "uint256",
          "name": "amount",
          "type": "uint256"
        }
      ],
      "name": "transfer",
      "outputs": [
        {
          "internalType": "bool",
          "name": "",
          "type": "bool"
        }
      ],
      "stateMutability": "nonpayable",
      "type": "function"
    },
    {
      "inputs": [
        {
          "internalType": "address",
          "name": "from",
          "type": "address"
        },
        {
          "internalType": "address",
          "name": "to",
          "type": "address"
        },
        {
          "internalType": "uint256",
          "name": "amount",
          "type": "uint256"
        }
      ],
      "name": "transferFrom",
      "outputs": [
        {
          "internalType": "bool",
          "name": "",
          "type": "bool"
        }
      ],
      "stateMutability": "nonpayable",
      "type": "function"
    },
    {
      "inputs": [
        {
          "internalType": "address",
          "name": "newOwner",
          "type": "address"
        }
      ],
      "name": "transferOwnership",
      "outputs": [],
      "stateMutability": "nonpayable",
      "type": "function"
    }
  ],
  "bytecode": "0x60806040526040518060600160405280602281526020016200248960229139600890816200002e919062000468565b503480156200003c57600080fd5b506040518060400160405280600581526020017f446567656e0000000000000000000000000000000000000000000000000000008152506040518060400160405280600381526020017f44474e00000000000000000000000000000000000000000000000000000000008152508160039081620000ba919062000468565b508060049081620000cc919062000468565b505050620000ef620000e36200012060201b60201c565b6200012860201b60201c565b6040518060800160405280605c8152602001620024ab605c91396006908162000119919062000468565b506200054f565b600033905090565b6000600560009054906101000a900473ffffffffffffffffffffffffffffffffffffffff16905081600560006101000a81548173ffffffffffffffffffffffffffffffffffffffff021916908373ffffffffffffffffffffffffffffffffffffffff1602179055508173ffffffffffffffffffffffffffffffffffffffff168173ffffffffffffffffffffffffffffffffffffffff167f8be0079c531659141344cd1fd0a4f28419497f9722a3daafe3b4186f6b6457e060405160405180910390a35050565b600081519050919050565b7f4e487b7100000000000000000000000000000000000000000000000000000000600052604160045260246000fd5b7f4e487b7100000000000000000000000000000000000000000000000000000000600052602260045260246000fd5b600060028204905060018216806200027057607f821691505b60208210810362000286576200028562000228565b5b50919050565b60008190508160005260206000209050919050565b60006020601f8301049050919050565b600082821b905092915050565b600060088302620002f07fffffffffffffffffffffffffffffffffffffffffffffffffffffffffffffffff82620002b1565b620002fc8683620002b1565b95508019841693508086168417925050509392505050565b6000819050919050565b6000819050919050565b600062000349620003436200033d8462000314565b6200031e565b62000314565b9050919050565b6000819050919050565b620003658362000328565b6200037d620003748262000350565b848454620002be565b825550505050565b600090565b6200039462000385565b620003a18184846200035a565b505050565b5b81811015620003c957620003bd6000826200038a565b600181019050620003a7565b5050565b601f8211156200041857620003e2816200028c565b620003ed84620002a1565b81016020851015620003fd578190505b620004156200040c85620002a1565b830182620003a6565b50505b505050565b600082821c905092915050565b60006200043d600019846008026200041d565b1980831691505092915050565b60006200045883836200042a565b9150826002028217905092915050565b6200047382620001ee565b67ffffffffffffffff8111156200048f576200048e620001f9565b5b6200049b825462000257565b620004a8828285620003cd565b600060209050601f831160018114620004e05760008415620004cb578287015190505b620004d785826200044a565b86555062000547565b601f198416620004f0866200028c565b60005b828110156200051a57848901518255600182019150602085019450602081019050620004f3565b868310156200053a578489015162000536601f8916826200042a565b8355505b6001600288020188555050505b505050505050565b611f2a806200055f6000396000f3fe60806040526004361061011f5760003560e01c8063715018a6116100a0578063a457c2d711610064578063a457c2d7146103d7578063a9059cbb14610414578063db006a7514610451578063dd62ed3e1461046d578063f2fde38b146104aa5761011f565b8063715018a61461031657806379cc67901461032d5780638ab88107146103565780638da5cb5b1461038157806395d89b41146103ac5761011f565b8063313ce567116100e7578063313ce5671461021f578063395093511461024a57806340c10f191461028757806342966c68146102b057806370a08231146102d95761011f565b806306fdde0314610124578063095ea7b31461014f57806313faede61461018c57806318160ddd146101b757806323b872dd146101e2575b600080fd5b34801561013057600080fd5b506101396104d3565b60405161014691906113f1565b60405180910390f35b34801561015b57600080fd5b50610176600480360381019061017191906114ac565b610565565b6040516101839190611507565b60405180910390f35b34801561019857600080fd5b506101a1610588565b6040516101ae919061153b565b60405180910390f35b3480156101c357600080fd5b506101cc61058e565b6040516101d99190611565565b60405180910390f35b3480156101ee57600080fd5b5061020960048036038101906102049190611580565b610598565b6040516102169190611507565b60405180910390f35b34801561022b57600080fd5b506102346105c7565b60405161024191906115ef565b60405180910390f35b34801561025657600080fd5b50610271600480360381019061026c91906114ac565b6105d0565b60405161027e9190611507565b60405180910390f35b34801561029357600080fd5b506102ae60048036038101906102a991906114ac565b610607565b005b3480156102bc57600080fd5b506102d760048036038101906102d2919061160a565b61061d565b005b3480156102e557600080fd5b5061030060048036038101906102fb9190611637565b610631565b60405161030d9190611565565b60405180910390f35b34801561032257600080fd5b5061032b610679565b005b34801561033957600080fd5b50610354600480360381019061034f91906114ac565b61068d565b005b34801561036257600080fd5b5061036b6106ad565b60405161037891906113f1565b60405180910390f35b34801561038d57600080fd5b5061039661073b565b6040516103a39190611673565b60405180910390f35b3480156103b857600080fd5b506103c1610765565b6040516103ce91906113f1565b60405180910390f35b3480156103e357600080fd5b506103fe60048036038101906103f991906114ac565b6107f7565b60405161040b9190611507565b60405180910390f35b34801561042057600080fd5b5061043b600480360381019061043691906114ac565b61086e565b6040516104489190611507565b60405180910390f35b61046b6004803603810190610466919061160a565b610891565b005b34801561047957600080fd5b50610494600480360381019061048f919061168e565b610913565b6040516104a19190611565565b60405180910390f35b3480156104b657600080fd5b506104d160048036038101906104cc9190611637565b61099a565b005b6060600380546104e2906116fd565b80601f016020809104026020016040519081016040528092919081815260200182805461050e906116fd565b801561055b5780601f106105305761010080835404028352916020019161055b565b820191906000526020600020905b81548152906001019060200180831161053e57829003601f168201915b5050505050905090565b600080610570610a1d565b905061057d818585610a25565b600191505092915050565b60075481565b6000600254905090565b6000806105a3610a1d565b90506105b0858285610bee565b6105bb858585610c7a565b60019150509392505050565b60006012905090565b6000806105db610a1d565b90506105fc8185856105ed8589610913565b6105f7919061175d565b610a25565b600191505092915050565b61060f610ef0565b6106198282610f6e565b5050565b61062e610628610a1d565b826110c4565b50565b60008060008373ffffffffffffffffffffffffffffffffffffffff1673ffffffffffffffffffffffffffffffffffffffff168152602001908152602001600020549050919050565b610681610ef0565b61068b6000611291565b565b61069f82610699610a1d565b83610bee565b6106a982826110c4565b5050565b600680546106ba906116fd565b80601f01602080910402602001604051908101604052809291908181526020018280546106e6906116fd565b80156107335780601f1061070857610100808354040283529160200191610733565b820191906000526020600020905b81548152906001019060200180831161071657829003601f168201915b505050505081565b6000600560009054906101000a900473ffffffffffffffffffffffffffffffffffffffff16905090565b606060048054610774906116fd565b80601f01602080910402602001604051908101604052809291908181526020018280546107a0906116fd565b80156107ed5780601f106107c2576101008083540402835291602001916107ed565b820191906000526020600020905b8154815290600101906020018083116107d057829003601f168201915b5050505050905090565b600080610802610a1d565b905060006108108286610913565b905083811015610855576040517f08c379a000000000000000000000000000000000000000000000000000000000815260040161084c90611803565b60405180910390fd5b6108628286868403610a25565b60019250505092915050565b600080610879610a1d565b9050610886818585610c7a565b600191505092915050565b6000811080156108a15750600481115b156108e45760086040517f08c379a00000000000000000000000000000000000000000000000000000000081526004016108db91906118bc565b60405180910390fd5b600a6108ef33610631565b10156108fa57600080fd5b6109103360028361090b91906118de565b6110c4565b50565b6000600160008473ffffffffffffffffffffffffffffffffffffffff1673ffffffffffffffffffffffffffffffffffffffff16815260200190815260200160002060008373ffffffffffffffffffffffffffffffffffffffff1673ffffffffffffffffffffffffffffffffffffffff16815260200190815260200160002054905092915050565b6109a2610ef0565b600073ffffffffffffffffffffffffffffffffffffffff168173ffffffffffffffffffffffffffffffffffffffff1603610a11576040517f08c379a0000000000000000000000000000000000000000000000000000000008152600401610a0890611992565b60405180910390fd5b610a1a81611291565b50565b600033905090565b600073ffffffffffffffffffffffffffffffffffffffff168373ffffffffffffffffffffffffffffffffffffffff1603610a94576040517f08c379a0000000000000000000000000000000000000000000000000000000008152600401610a8b90611a24565b60405180910390fd5b600073ffffffffffffffffffffffffffffffffffffffff168273ffffffffffffffffffffffffffffffffffffffff1603610b03576040517f08c379a0000000000000000000000000000000000000000000000000000000008152600401610afa90611ab6565b60405180910390fd5b80600160008573ffffffffffffffffffffffffffffffffffffffff1673ffffffffffffffffffffffffffffffffffffffff16815260200190815260200160002060008473ffffffffffffffffffffffffffffffffffffffff1673ffffffffffffffffffffffffffffffffffffffff168152602001908152602001600020819055508173ffffffffffffffffffffffffffffffffffffffff168373ffffffffffffffffffffffffffffffffffffffff167f8c5be1e5ebec7d5bd14f71427d1e84f3dd0314c0f7b2291e5b200ac8c7c3b92583604051610be19190611565565b60405180910390a3505050565b6000610bfa8484610913565b90507fffffffffffffffffffffffffffffffffffffffffffffffffffffffffffffffff8114610c745781811015610c66576040517f08c379a0000000000000000000000000000000000000000000000000000000008152600401610c5d90611b22565b60405180910390fd5b610c738484848403610a25565b5b50505050565b600073ffffffffffffffffffffffffffffffffffffffff168373ffffffffffffffffffffffffffffffffffffffff1603610ce9576040517f08c379a0000000000000000000000000000000000000000000000000000000008152600401610ce090611bb4565b60405180910390fd5b600073ffffffffffffffffffffffffffffffffffffffff168273ffffffffffffffffffffffffffffffffffffffff1603610d58576040517f08c379a0000000000000000000000000000000000000000000000000000000008152600401610d4f90611c46565b60405180910390fd5b610d63838383611357565b60008060008573ffffffffffffffffffffffffffffffffffffffff1673ffffffffffffffffffffffffffffffffffffffff16815260200190815260200160002054905081811015610de9576040517f08c379a0000000000000000000000000000000000000000000000000000000008152600401610de090611cd8565b60405180910390fd5b8181036000808673ffffffffffffffffffffffffffffffffffffffff1673ffffffffffffffffffffffffffffffffffffffff16815260200190815260200160002081905550816000808573ffffffffffffffffffffffffffffffffffffffff1673ffffffffffffffffffffffffffffffffffffffff168152602001908152602001600020600082825401925050819055508273ffffffffffffffffffffffffffffffffffffffff168473ffffffffffffffffffffffffffffffffffffffff167fddf252ad1be2c89b69c2b068fc378daa952ba7f163c4a11628f55a4df523b3ef84604051610ed79190611565565b60405180910390a3610eea84848461135c565b50505050565b610ef8610a1d565b73ffffffffffffffffffffffffffffffffffffffff16610f1661073b565b73ffffffffffffffffffffffffffffffffffffffff1614610f6c576040517f08c379a0000000000000000000000000000000000000000000000000000000008152600401610f6390611d44565b60405180910390fd5b565b600073ffffffffffffffffffffffffffffffffffffffff168273ffffffffffffffffffffffffffffffffffffffff1603610fdd576040517f08c379a0000000000000000000000000000000000000000000000000000000008152600401610fd490611db0565b60405180910390fd5b610fe960008383611357565b8060026000828254610ffb919061175d565b92505081905550806000808473ffffffffffffffffffffffffffffffffffffffff1673ffffffffffffffffffffffffffffffffffffffff168152602001908152602001600020600082825401925050819055508173ffffffffffffffffffffffffffffffffffffffff16600073ffffffffffffffffffffffffffffffffffffffff167fddf252ad1be2c89b69c2b068fc378daa952ba7f163c4a11628f55a4df523b3ef836040516110ac9190611565565b60405180910390a36110c06000838361135c565b5050565b600073ffffffffffffffffffffffffffffffffffffffff168273ffffffffffffffffffffffffffffffffffffffff1603611133576040517f08c379a000000000000000000000000000000000000000000000000000000000815260040161112a90611e42565b60405180910390fd5b61113f82600083611357565b60008060008473ffffffffffffffffffffffffffffffffffffffff1673ffffffffffffffffffffffffffffffffffffffff168152602001908152602001600020549050818110156111c5576040517f08c379a00000000000000000000000000000000000000000000000000000000081526004016111bc90611ed4565b60405180910390fd5b8181036000808573ffffffffffffffffffffffffffffffffffffffff1673ffffffffffffffffffffffffffffffffffffffff1681526020019081526020016000208190555081600260008282540392505081905550600073ffffffffffffffffffffffffffffffffffffffff168373ffffffffffffffffffffffffffffffffffffffff167fddf252ad1be2c89b69c2b068fc378daa952ba7f163c4a11628f55a4df523b3ef846040516112789190611565565b60405180910390a361128c8360008461135c565b505050565b6000600560009054906101000a900473ffffffffffffffffffffffffffffffffffffffff16905081600560006101000a81548173ffffffffffffffffffffffffffffffffffffffff021916908373ffffffffffffffffffffffffffffffffffffffff1602179055508173ffffffffffffffffffffffffffffffffffffffff168173ffffffffffffffffffffffffffffffffffffffff167f8be0079c531659141344cd1fd0a4f28419497f9722a3daafe3b4186f6b6457e060405160405180910390a35050565b505050565b505050565b600081519050919050565b600082825260208201905092915050565b60005b8381101561139b578082015181840152602081019050611380565b60008484015250505050565b6000601f19601f8301169050919050565b60006113c382611361565b6113cd818561136c565b93506113dd81856020860161137d565b6113e6816113a7565b840191505092915050565b6000602082019050818103600083015261140b81846113b8565b905092915050565b600080fd5b600073ffffffffffffffffffffffffffffffffffffffff82169050919050565b600061144382611418565b9050919050565b61145381611438565b811461145e57600080fd5b50565b6000813590506114708161144a565b92915050565b6000819050919050565b61148981611476565b811461149457600080fd5b50565b6000813590506114a681611480565b92915050565b600080604083850312156114c3576114c2611413565b5b60006114d185828601611461565b92505060206114e285828601611497565b9150509250929050565b60008115159050919050565b611501816114ec565b82525050565b600060208201905061151c60008301846114f8565b92915050565b6000819050919050565b61153581611522565b82525050565b6000602082019050611550600083018461152c565b92915050565b61155f81611476565b82525050565b600060208201905061157a6000830184611556565b92915050565b60008060006060848603121561159957611598611413565b5b60006115a786828701611461565b93505060206115b886828701611461565b92505060406115c986828701611497565b9150509250925092565b600060ff82169050919050565b6115e9816115d3565b82525050565b600060208201905061160460008301846115e0565b92915050565b6000602082840312156116205761161f611413565b5b600061162e84828501611497565b91505092915050565b60006020828403121561164d5761164c611413565b5b600061165b84828501611461565b91505092915050565b61166d81611438565b82525050565b60006020820190506116886000830184611664565b92915050565b600080604083850312156116a5576116a4611413565b5b60006116b385828601611461565b92505060206116c485828601611461565b9150509250929050565b7f4e487b7100000000000000000000000000000000000000000000000000000000600052602260045260246000fd5b6000600282049050600182168061171557607f821691505b602082108103611728576117276116ce565b5b50919050565b7f4e487b7100000000000000000000000000000000000000000000000000000000600052601160045260246000fd5b600061176882611476565b915061177383611476565b925082820190508082111561178b5761178a61172e565b5b92915050565b7f45524332303a2064656372656173656420616c6c6f77616e63652062656c6f7760008201527f207a65726f000000000000000000000000000000000000000000000000000000602082015250565b60006117ed60258361136c565b91506117f882611791565b604082019050919050565b6000602082019050818103600083015261181c816117e0565b9050919050565b60008190508160005260206000209050919050565b60008154611845816116fd565b61184f818661136c565b9450600182166000811461186a5760018114611880576118b3565b60ff1983168652811515602002860193506118b3565b61188985611823565b60005b838110156118ab5781548189015260018201915060208101905061188c565b808801955050505b50505092915050565b600060208201905081810360008301526118d68184611838565b905092915050565b60006118e982611476565b91506118f483611476565b925082820261190281611476565b915082820484148315176119195761191861172e565b5b5092915050565b7f4f776e61626c653a206e6577206f776e657220697320746865207a65726f206160008201527f6464726573730000000000000000000000000000000000000000000000000000602082015250565b600061197c60268361136c565b915061198782611920565b604082019050919050565b600060208201905081810360008301526119ab8161196f565b9050919050565b7f45524332303a20617070726f76652066726f6d20746865207a65726f2061646460008201527f7265737300000000000000000000000000000000000000000000000000000000602082015250565b6000611a0e60248361136c565b9150611a19826119b2565b604082019050919050565b60006020820190508181036000830152611a3d81611a01565b9050919050565b7f45524332303a20617070726f766520746f20746865207a65726f20616464726560008201527f7373000000000000000000000000000000000000000000000000000000000000602082015250565b6000611aa060228361136c565b9150611aab82611a44565b604082019050919050565b60006020820190508181036000830152611acf81611a93565b9050919050565b7f45524332303a20696e73756666696369656e7420616c6c6f77616e6365000000600082015250565b6000611b0c601d8361136c565b9150611b1782611ad6565b602082019050919050565b60006020820190508181036000830152611b3b81611aff565b9050919050565b7f45524332303a207472616e736665722066726f6d20746865207a65726f20616460008201527f6472657373000000000000000000000000000000000000000000000000000000602082015250565b6000611b9e60258361136c565b9150611ba982611b42565b604082019050919050565b60006020820190508181036000830152611bcd81611b91565b9050919050565b7f45524332303a207472616e7366657220746f20746865207a65726f206164647260008201527f6573730000000000000000000000000000000000000000000000000000000000602082015250565b6000611c3060238361136c565b9150611c3b82611bd4565b604082019050919050565b60006020820190508181036000830152611c5f81611c23565b9050919050565b7f45524332303a207472616e7366657220616d6f756e742065786365656473206260008201527f616c616e63650000000000000000000000000000000000000000000000000000602082015250565b6000611cc260268361136c565b9150611ccd82611c66565b604082019050919050565b60006020820190508181036000830152611cf181611cb5565b9050919050565b7f4f776e61626c653a2063616c6c6572206973206e6f7420746865206f776e6572600082015250565b6000611d2e60208361136c565b9150611d3982611cf8565b602082019050919050565b60006020820190508181036000830152611d5d81611d21565b9050919050565b7f45524332303a206d696e7420746f20746865207a65726f206164647265737300600082015250565b6000611d9a601f8361136c565b9150611da582611d64565b602082019050919050565b60006020820190508181036000830152611dc981611d8d565b9050919050565b7f45524332303a206275726e2066726f6d20746865207a65726f2061646472657360008201527f7300000000000000000000000000000000000000000000000000000000000000602082015250565b6000611e2c60218361136c565b9150611e3782611dd0565b604082019050919050565b60006020820190508181036000830152611e5b81611e1f565b9050919050565b7f45524332303a206275726e20616d6f756e7420657863656564732062616c616e60008201527f6365000000000000000000000000000000000000000000000000000000000000602082015250565b6000611ebe60228361136c565b9150611ec982611e62565b604082019050919050565b60006020820190508181036000830152611eed81611eb1565b905091905056fea2646970667358221220be2e3859e172bc198fab1645566a154bf1bc9cd9d2ef3e7d9dcf2e7b13eb968364736f6c634300081200334f6e6c792033206974656d7320617661696c61626c6520696e207468652073686f70596f7520686176652074686520666f6c6c6f77696e67206974656d7320696e20796f75722073686f7020776869636820796f75206172652061626c6520746f2072656465656d3a20312e466f72642c20322e466961742c20332e4d47",
  "linkReferences": {},
  "deployedLinkReferences": {}
}